:020000040800F2
:1000000000000120D9090008290A0008290A00086F
:10001000290A0008290A0008290A0008000000002F
:10002000000000000000000000000000290A000895
:10003000290A000800000000290A0008290A00080F
:1000400000000000290A0008290A0008290A0008FF
:10005000290A0008290A00083D0800085B08000872
:10006000290A0008290A0008290A000800000000DF
:100070000000000000000000000000000000000080
:100080000000000000000000290A00080000000035
:10009000000000000000000000000000290A000825
:1000A000290A0008290A0008290A0008290A000864
:1000B000290A0008290A000800000000290A00088F
:1000C000290A0008290A0008290A0008290A000844
:1000D000290A0008000000000000000000000000E5
:1000E000290A0008290A0008290A0008000000005F
:1000F0000000000000000000000000000000000000
:1001000000000000290A000800000000290A000879
:1001100000000000000000000000000000000000DF
:1001200000000000000000000000000000000000CF
:1001300000000000000000000000000000000000BF
:10014000000000000000000000000000290A000874
:10015000000000000000000000000000000000009F
:10016000290A0008290A0008000000000000000019
:10017000000000000000000000000000000000007F
:1001800000000000290A0008000000000000000034
:04019000290A000830
:1001940010B5054C237833B9044B13B10448AFF3BD
:1001A40000800123237010BD2C04002000000000F7
:1001B400900B000808B5034B1BB103490348AFF388
:1001C400008008BD0000000030040020900B0008EF
:1001D40080B483B000AF7860084611461A460346DF
:1001E400FB700B46BB7013467B70204B1A6B7B78FD
:1001F400012101FA03F31D4913430B63BB78002B60
:1002040016D07B681A68FB785B00012101FA03F3BE
:100214001A437B681A607B681A68FB785B000133B9
:10022400012101FA03F3DB431A407B681A6016E0EC
:100234007B681A68FB785B00012101FA03F3DB4356
:100244001A407B681A607B681A68FB785B0001338C
:10025400012101FA03F3DB431A407B681A6000BFF3
:100264000C37BD465DF8047B704700BF0038024080
:1002740080B483B000AF78600B46FB701346BB704C
:100284007B681A68FB785B00012101FA03F31340D1
:10029400002B18D0BB78002B09D07B685A69FB78F7
:1002A400012101FA03F31A437B685A6109E07B6870
:1002B4005A69FB78012101FA03F3DB431A407B6896
:1002C4005A61002300E0012318460C37BD465DF84F
:1002D400047B704780B483B000AF78600B46FB703A
:1002E4001346BB70BB78012B1CD0022B31D0002BE2
:1002F40000D045E07B68DA68FB785B00012101FAF5
:1003040003F3DB431A407B68DA607B68DA68FB78C6
:100314005B000133012101FA03F3DB431A407B68DC
:10032400DA602DE07B68DA68FB785B00012101FA72
:1003340003F31A437B68DA607B68DA68FB785B0056
:100344000133012101FA03F3DB431A407B68DA60CD
:1003540016E07B68DA68FB785B00012101FA03F39D
:10036400DB431A407B68DA607B68DA68FB785B0001
:100374000133012101FA03F31A437B68DA6000BFF9
:1003840000BF0C37BD465DF8047B704790B482B063
:1003940000AF0446084611461A462346FB7103463D
:1003A400BB710B467B7113463B715F4B5A6CFB79F7
:1003B400012101FA03F35C4913434B64BB79032B1A
:1003C40017D85A4B9B68BA7992000F2101FA02F2AE
:1003D400D2431146554A0B409360544B9B6879793C
:1003E400BA79920001FA02F21146504A0B43936023
:1003F4006BE0BB79072B1ED8BB79032B1BD9BB79C8
:1004040003F00303BB71494BDB68BA7992000F21F7
:1004140001FA02F2D2431146444A0B40D360434BE3
:10042400DB687979BA79920001FA02F211463F4AFF
:100434000B43D36049E0BB790B2B1ED8BB79072B48
:100444001BD9BB7903F00703BB71384B1B69BA791D
:1004540092000F2101FA02F2D2431146334A0B40B3
:100464001361324B1B697979BA79920001FA02F26D
:1004740011462E4A0B43136127E0BB790F2B24D876
:10048400BB790B2B21D9BA79294BA3FB0213D908C9
:100494000B465B000B449B00D31ABB71234B5B6977
:1004A400BA7992000F2101FA02F2D24311461F4A8F
:1004B4000B4053611D4B5B697979BA79920001FA5B
:1004C40002F21146194A0B4353611A4B1A68BB795D
:1004D400012101FA03F3174913430B603B79012B04
:1004E40009D1144B9A68BB79012101FA03F311492C
:1004F40013438B6008E00F4BDA68BB79012101FAE2
:1005040003F30C491343CB600B4B1A68BB790633D6
:10051400012101FA03F3084913430B6000BF0837B4
:10052400BD4690BC704700BF00380240003801400F
:10053400ABAAAAAA003C014000E100E080B483B069
:1005440000AF0346FB71094BD3F88020FB790633D7
:10055400012101FA03F305491343C1F8803000BFB8
:100564000C37BD465DF8047B704700BF00E100E036
:1005740080B500AF0023002200211D48FFF728FEAC
:100584000023002201211A48FFF722FE0122002144
:100594001748FFF79FFE012201211548FFF79AFE35
:1005A4000023012203211248FFF712FE0023012237
:1005B40004210F48FFF70CFE0023012205210C48FB
:1005C400FFF706FE0023012206210948FFF700FE7B
:1005D4000023002200210E20FFF7D8FE0023002272
:1005E40001210E20FFF7D2FE0023184680BD00BF74
:1005F4000000024080B500AF774B1B68092B00F266
:10060400E98001A252F823F0350600085F060008CD
:1006140089060008B3060008DD060008070700087D
:10062400310700085B07000885070008AF070008CA
:10063400002203216948FFF71BFE002204216748BA
:10064400FFF716FE002205216448FFF711FE002281
:1006540006216248FFF70CFEBCE0012203215F483B
:10066400FFF706FE002204215C48FFF701FE00228A
:1006740005215A48FFF7FCFD002206215748FFF7E1
:10068400F7FDA7E0002203215448FFF7F1FD012202
:1006940004215248FFF7ECFD002205214F48FFF7E3
:1006A400E7FD002206214D48FFF7E2FD92E001221A
:1006B40003214A48FFF7DCFD012204214748FFF7E4
:1006C400D7FD002205214548FFF7D2FD002206216F
:1006D4004248FFF7CDFD7DE0002203213F48FFF7AC
:1006E400C7FD002204213D48FFF7C2FD0122052178
:1006F4003A48FFF7BDFD002206213848FFF7B8FD50
:1007040068E0012203213548FFF7B2FD00220421ED
:100714003248FFF7ADFD012205213048FFF7A8FD5F
:10072400002206212D48FFF7A3FD53E000220321F8
:100734002A48FFF79DFD012204212848FFF798FD70
:10074400012205212548FFF793FD002206212348B5
:10075400FFF78EFD3EE0012203212048FFF788FDCC
:10076400012204211D48FFF783FD012205211B48B6
:10077400FFF77EFD002206211848FFF779FD29E0E6
:10078400002203211548FFF773FD002204211348BA
:10079400FFF76EFD002205211048FFF769FD0122D5
:1007A40006210E48FFF764FD14E0012203210B48E3
:1007B400FFF75EFD002204210848FFF759FD0022DF
:1007C40005210648FFF754FD012206210348FFF7DF
:1007D4004FFD00BF00BF80BD480400200000024060
:1007E40080B500AF084B1B68092B03D1064B0022D0
:1007F4001A6004E0044B1B680133034A1360FFF7DB
:10080400F9FE00BF80BD00BF4804002080B500AFE2
:10081400084B1B68002B03D1064B09221A6004E025
:10082400044B1B68013B034A1360FFF7E3FE00BF60
:1008340080BD00BF4804002080B500AF0120FFF751
:100844007DFEFFF7CDFF0023002201210E20FFF7DC
:100854009DFD00BF80BD80B500AF0020FFF76EFE98
:10086400FFF7D4FF0023002200210E20FFF78EFDA6
:1008740000BF80BD80B500AF164BD3F88830154A51
:1008840043F47003C2F88830134B1B68124A43F0D8
:1008940001031360104B00229A600F4B1B680E4A31
:1008A40023F0847323F4803313600B4B0B4A5A6098
:1008B400094B1B68084A23F480231360064B00226B
:1008C400DA6000F00DF8034B4FF000629A6000BF4D
:1008D40080BD00BF00ED00E000380240103000246D
:1008E40080B483B000AF00237B6000233B60354BB2
:1008F4001B68344A43F480331360324B1B6803F49F
:1009040000333B607B6801337B603B68002B03D181
:100914007B68B3F5A04FF0D12A4B1B6803F4003376
:10092400002B02D001233B6001E000233B603B68C5
:10093400012B40D1234B1B6C224A43F08053136498
:10094400214B1B68204A43F4404313601D4B1D4A4E
:100954009B6893601B4B1B4A9B689360194B9B6875
:10096400184A43F480539360164B184A5A60154B47
:100974001B68144A43F08073136000BF114B1B685B
:1009840003F00073002BF9D0114B40F202721A608D
:100994000C4B9B680B4A23F003039360094B9B6841
:1009A400084A43F00203936000BF064B9B6803F0C0
:1009B4000C03082BF9D100BF0C37BD465DF8047B4E
:1009C400704700BF003802400070004019544107CE
:1009D400003C02400D4885460D480E490E4A00234E
:1009E40002E0D458C4500433C4188C42F9D30B4ADF
:1009F4000B4C002301E013600432A242FBD3FFF747
:100A040039FF00F011F8FFF7B3FDFEE70000012005
:100A1400000000202C040020B80B00082C04002047
:100A240070040020FEE7000070B50D4E0D4D761BDE
:100A3400B61006D00024013455F8043B9847A6426A
:100A4400F9D1094E094D761B00F0A0F8B61006D076
:100A54000024013455F8043B9847A642F9D170BDEF
:100A6400AC0B0008AC0B0008B40B0008AC0B00087E
:100A7400024B13B1024800F005B8704700000000B3
:100A8400950A0008002301461A46184600F01EB8CD
:100A940038B50A4C0A4D641BA4100AD004F18043F3
:100AA400013B05EB8305013C55F804399847002CBC
:100AB400F9D1BDE8384000F06FB800BFB80B0008AA
:100AC400B40B0008704700BF704700BF2DE9F8431E
:100AD4002B4D0646286898460F469146FFF7F2FFCD
:100AE400284B1C68D4F84831002B3DD05A681F2A83
:100AF4000DDC02F1010C16BB0232C3F804C02868F5
:100B040043F82270FFF7E0FF0020BDE8F8831E4B96
:100B14007BB34FF4C870AFF30080034648B3D4F8F6
:100B240048210021C0E900214FF0010CC4F848011C
:100B34000A46C0F88811C0F88C11002EDCD003EBF3
:100B440082010124C1F88890D3F88801944020439D
:100B5400022EC3F88801C1F80881CDD1D3F88C11D5
:100B64000C43C3F88C41C7E704F5A673C4F84831B5
:100B7400BCE72868FFF7A8FF4FF0FF30C5E700BFC8
:100B840028040020A80B000800000000F8B500BFEE
:100B9400F8BC08BC9E467047F8B500BFF8BC08BC5A
:040BA4009E467047B2
:040BA8000000002029
:080BAC00750A0008B9010008F8
:040BB400950100089F
:100BB80000000000EC02002054030020BC030020C9
:100BC800000000000000000000000000000000001D
:100BD800000000000000000000000000000000000D
:100BE80000000000000000000000000000000000FD
:100BF80000000000000000000000000000000000ED
:100C080000000000000000000000000000000000DC
:100C180000000000000000000000000000000000CC
:100C280000000000000000000000000000000000BC
:100C380000000000000000000000000000000000AC
:100C4800000000000000000000000000000000009C
:100C5800000000000000000001000000000000008B
:100C68000E33CDAB34126DE6ECDE05000B00000050
:100C7800000000000000000000000000000000006C
:100C8800000000000000000000000000000000005C
:100C9800000000000000000000000000000000004C
:100CA800000000000000000000000000000000003C
:0C0FD80000000000000000004C0400209D
:04000005080009D90D
:00000001FF
